:020000040000FA
:100000008888FF1F21030000BD170000A10B00001E
:10001000B5170000610500006D250000000000001C
:10002000000000000000000000000000BD1A0000F9
:10003000590B000000000000E1190000DD1E000067
:10004000A90B0000BD0B0000D10B0000E50B000068
:10005000F90B00000D0C0000210C0000350C000015
:10006000490C00005D0C0000710C0000850C0000C4
:10007000990C0000AD0C0000C10C0000D50C000074
:10008000E90C0000FD0C0000110D0000250D000022
:10009000390D00004D0D0000610D0000750D0000D0
:1000A000890D00009D0D0000B10D0000C50D000080
:1000B000D90D0000ED0D0000010E0000150E00002E
:1000C000290E0000410E0000590E0000710E0000C4
:1000D000890E0000A10E0000B90E0000D10E000034
:1000E000E90E0000010F0000190F0000310F0000A1
:1000F000490F0000610F0000790F0000910F000010
:10010000A90F0000C10F0000D90F0000F10F00007F
:1001100009100000211000003910000051100000EB
:10012000691000008110000099100000B11000005B
:10013000C9100000E1100000F910000011110000CA
:100140002911000041110000591100007111000037
:1001500089110000A1110000B9110000D1110000A7
:10016000E911000001120000191200003112000014
:100170004912000061120000791200009112000083
:10018000A9120000C1120000D9120000F1120000F3
:10019000091300002113000039130000511300005F
:1001A000691300008113000099130000B1130000CF
:1001B000C9130000E1130000F9130000111400003E
:1001C00029140000411400005914000071140000AB
:1001D00089140000A1140000B9140000D11400001B
:1001E000E914000001150000191500003115000088
:1001F00049150000611500007915000091150000F7
:10020000A9150000C1150000D9150000F115000066
:1002100009160000211600003916000051160000D2
:10022000691600008116000099160000B116000042
:10023000C9160000E1160000F916000011170000B1
:100240006303000063030000630300006303000016
:100250006303000063030000630300006303000006
:1002600063030000630300006303000063030000F6
:1002700063030000630300006303000063030000E6
:1002800000F002F800F03CF80AA090E8000C82446C
:100290008344AAF10107DA4501D100F031F8AFF249
:1002A000090EBAE80F0013F0010F18BFFB1A43F054
:1002B000010318470429000024290000103A24BF34
:1002C00078C878C1FAD8520724BF30C830C144BFBB
:1002D00004680C60704700000023002400250026FD
:1002E000103A28BF78C1FBD8520728BF30C148BF99
:1002F0000B6070471FB502F035FC1FBD10B510BD77
:1003000000F005F91146FFF7F5FF02F0EDFA00F0F5
:100310006DF803B4FFF7F2FF03BC02F09FFA000090
:1003200013484FF07701016012484FF077010160E8
:1003300011484FF4885101600D484FF0760101607B
:100340000C484FF0760101600C4880470C4800478C
:10035000FEE7FEE7FEE7FEE7FEE7FEE7FEE7FEE775
:10036000FEE7FEE707480849084A094B70470000C6
:10037000040805400C08054000080540D11F000096
:10038000810200008882FF1F8888FF1F8884FF1F6A
:100390008884FF1F70474FF0000200B51346944653
:1003A0009646203922BFA0E80C50A0E80C50B1F1CD
:1003B0002001BFF4F7AF090728BFA0E80C5048BFE1
:1003C0000CC05DF804EB890028BF40F8042B08BF7F
:1003D000704748BF20F8022B11F0804F18BF00F87B
:1003E000012B7047704770477047704710B504463F
:1003F000AFF300802046BDE81040FFF78ABF70478A
:10040000FFFFFFFFFFFEFFFFFFFFFFFFFFFFFFFFFD
:10041000FFFFFFFFFFFFFFFFFFFFFFFFFFFFFFFFEC
:1004200053EA020C00F069802DE9F04B4FF0000612
:10043000002B1FBFB3FA83F503FA05F424FA05F67F
:100440005E4012BF1643B2FA82F502FA05F4C5F116
:1004500020051EBF22FA05FC44EA0C04203556EAAA
:10046000044C4FEA144418BF641C4FF000084FF0CE
:100470000009904271EB030C39D3002919BFB1FA7E
:1004800081F701FA07F6B0FA80F700FA07F6C7F12C
:1004900020071EBF20FA07FC46EA0C062037B6FBF1
:1004A000F4FCA7EB0507103F07F01F0BCBF120066C
:1004B0000CFA0BFB2CFA06F644BFB3460026202F9D
:1004C000A4BF5E464FF0000B5BEA060C08BF4FF07E
:1004D000010B19EB0B09ABFB027C48EB0608C01BB8
:1004E00006FB02CC0BFB03CC71EB0C01C1E70B4606
:1004F000024641464846BDE8F08B13B54FF0000078
:100500004FF00001AFF30080BDE81C407047754616
:1005100000F022F8AE4605006946534620F0070079
:10052000854618B020B5FFF71DFFBDE820404FF00D
:1005300000064FF000074FF000084FF0000B21F0CD
:100540000701AC46ACE8C009ACE8C009ACE8C0099A
:10055000ACE8C0098D467047004870472482FF1FF1
:1005600010B5AFF3008010BD014631B101290DD0A7
:10057000022914D0032924D11AE0184A127802F073
:10058000010282F0010282F0010024E0134A127895
:10059000C2F3C00282F0010282F001001BE00F4AA8
:1005A0001278C2F3401282F0010282F0010012E0E0
:1005B0000A4A1278C2F3801282F0010282F001002E
:1005C00009E0064A521D127802F0010282F001028F
:1005D00082F0010000BF00BF704700003C400540B2
:1005E00000B58BB000BF002009900A9000BF00BF8B
:1005F000089000BF00BF142103A8FFF7CCFE00BF86
:1006000000BF00200190029000BF8DF8240001205F
:100610008DF8250000208DF8260001208DF8270098
:1006200002208DF828008DF8290001208DF82A007D
:1006300009A800F067F900208DF8210002208DF84C
:10064000220001208DF8200008A800F03DFA0120CA
:1006500000F0D6F90F208DF8040001208DF8050078
:100660008DF8060001A801F0CFF900F08FFA0520FF
:1006700000F082FA00F074FA012007903220069010
:100680000220039004900590002000F0A5F803A834
:1006900000F05AF8012000F00DF800BF0220FFF72B
:1006A00063FF0128FAD101F077F9052000F0B4F8D2
:1006B0000BB000BD18B50346002000900024204870
:1006C00000884AF2015108431E49A1F8FE0393B97C
:1006D0001C482630007800F00700052801D10124CD
:1006E00022E018482A30007820F00100401C15490B
:1006F00081F82A0018E013482A30007820F0010021
:10070000104981F82A00092409E00220FFF72CFF94
:10071000012801D1002406E00098401C00900098B8
:10072000B0F5805FF1D300BF054800884FF6FE7139
:10073000084040F425400349A1F8FE03204618BDB7
:10074000FE4305400040054000283ED01F4909886F
:100750004AF2015211431D4A11800178491E1C4A78
:10076000D2F8002161F31F721A490A600179491E0B
:10077000174AD2F8002161F31B6216490A60017A18
:10078000491E134AD2F8002161F3175211490A6039
:100790008189491E0E4AD2F8002161F310220D49C9
:1007A0000A60017C491E0A4AD2F8002161F3040262
:1007B0000749C1F80021B1F8FE134FF6FE7211404F
:1007C00041F42541024AA2F8FE137047FE4305405A
:1007D00000400540004105400D4909884AF2015298
:1007E00011430C4AA2F8FE131146D1F8001160F330
:1007F000C711C2F800111146B1F8FE134FF6FE7290
:10080000114041F42541034AA2F8FE13704700004D
:10081000FE4305400040054010B586B00446002068
:100820000590334800680490314840680390304890
:10083000806802902E48C06801902E482C490861BB
:100840002D48007800F00700052801D0052C0ED1B6
:100850002A4827490860C01248608860C86000BF05
:100860000598401C05900598B0F5007FF8D3244802
:1008700000884AF2015108431F492639A1F8FE03B6
:10088000084690F8260064F3020081F82600084626
:10089000B0F8FE034FF6FE71084040F425401649BB
:1008A0002639A1F8FE030020059000BF0598401CE2
:1008B00005900598B0F5007FF8D30D4904980860BD
:1008C00003984860029888600198C8600948401EF3
:1008D00008610020059000BF0598401C0590059810
:1008E000B0F5007FF8D301F0FDFA06B010BD0000AE
:1008F000008004400100A5A526400540EEFAFFFF58
:10090000FE43054085B000210491384909680391F0
:100910003649496802913549896801913349C96866
:1009200000913349314A116100285DD0314909787D
:1009300001F0070105290DD12F491160C91251603D
:100940009160D16000BF0499491C04910499B1F5EC
:10095000007FF8D3294909884AF201521143274AF6
:1009600011808178C27841EA0211027941EA0221BC
:10097000427941EA0231827941EA0241427841EA10
:100980000251027841EA026141EA0271194A263AAB
:1009900011621A4909884FF6FE72114041F425414F
:1009A000144A263AA2F8FE130021049100BF0499CC
:1009B000491C04910499B1F5007FF8D30B4A0399BF
:1009C000116002995160019991600099D1600849C4
:1009D000491E11610021049100BF0499491C049132
:1009E0000499B1F5007FF8D305B07047008004404A
:1009F0000100A5A526400540EEFAFFFFFE43054095
:100A000018B503460020009000242C4800884AF2C4
:100A1000015108432A49A1F8FE034BBB2848263060
:100A2000007800F00700032801D1012439E02548AF
:100A30000068C0F3C01088B921482A30007800F05F
:100A4000010008B901242CE01D483230007820F064
:100A50000100401C1A4981F8320022E01848323067
:100A6000007820F00100401C154981F8320018E0A0
:100A700013483230007820F00100114981F832002B
:100A8000092409E00120FFF76FFD012801D10024AE
:100A900006E00098401C00900098B0F5805FF1D30C
:100AA00000BF064800884FF6FE71084040F425401C
:100AB0000349A1F8FE03204618BD0000FE4305408F
:100AC000004005400041054058B3164909884AF2E4
:100AD00001521143134A11800278124912310978E8
:100AE00062F3C7110F4A1232117042780D49123168
:100AF000097862F386110B4A123211708278094923
:100B00001231097862F30511064A12321170054953
:100B100009884FF6FE72114041F42541024AA2F8BD
:100B2000FE137047FE4305400040054008B5094AE2
:100B3000116842F21072B1FBF2F106E0009100BFC1
:100B4000009A531E0093002AFAD1021EA0F1010060
:100B5000F4D108BD0480FF1F10B5AFF3008010BDB5
:100B600004480068012804D143F2102001490860BC
:100B700008607047000401400349096860F30711E9
:100B8000014A1160704700000804014040F2231040
:100B90000249086043F210200860704700040140D9
:100BA00010B5AFF3008010BD10B50348006810B158
:100BB00001490868804710BD2480FF1F10B5034815
:100BC000406810B101494868804710BD2480FF1F6C
:100BD00010B50348806810B101498868804710BD8E
:100BE0002480FF1F10B50348C06810B10149C868D0
:100BF000804710BD2480FF1F10B50348006910B165
:100C000001490869804710BD2480FF1F10B50348C3
:100C1000406910B101494869804710BD2480FF1F19
:100C200010B50348806910B101498869804710BD3B
:100C30002480FF1F10B50348C06910B10149C8697D
:100C4000804710BD2480FF1F10B50348006A10B113
:100C50000149086A804710BD2480FF1F10B5034872
:100C6000406A10B10149486A804710BD2480FF1FC7
:100C700010B50348806A10B10149886A804710BDE9
:100C80002480FF1F10B50348C06A10B10149C86A2B
:100C9000804710BD2480FF1F10B50348006B10B1C2
:100CA0000149086B804710BD2480FF1F10B5034821
:100CB000406B10B10149486B804710BD2480FF1F75
:100CC00010B50348806B10B10149886B804710BD97
:100CD0002480FF1F10B50348C06B10B10149C86BD9
:100CE000804710BD2480FF1F10B50348006C10B171
:100CF0000149086C804710BD2480FF1F10B50348D0
:100D0000406C10B10149486C804710BD2480FF1F22
:100D100010B50348806C10B10149886C804710BD44
:100D20002480FF1F10B50348C06C10B10149C86C86
:100D3000804710BD2480FF1F10B50348006D10B11F
:100D40000149086D804710BD2480FF1F10B503487E
:100D5000406D10B10149486D804710BD2480FF1FD0
:100D600010B50348806D10B10149886D804710BDF2
:100D70002480FF1F10B50348C06D10B10149C86D34
:100D8000804710BD2480FF1F10B50348006E10B1CE
:100D90000149086E804710BD2480FF1F10B503482D
:100DA000406E10B10149486E804710BD2480FF1F7E
:100DB00010B50348806E10B10149886E804710BDA0
:100DC0002480FF1F10B50348C06E10B10149C86EE2
:100DD000804710BD2480FF1F10B50348006F10B17D
:100DE0000149086F804710BD2480FF1F10B50348DC
:100DF000406F10B10149486F804710BD2480FF1F2C
:100E000010B50348806F10B10149886F804710BD4D
:100E10002480FF1F10B50348C06F10B10149C86F8F
:100E2000804710BD2480FF1F10B50448D0F8800013
:100E300018B10249D1F88000804710BD2480FF1FFF
:100E400010B50448D0F8840018B10249D1F88400E4
:100E5000804710BD2480FF1F10B50448D0F88800DB
:100E600018B10249D1F88800804710BD2480FF1FC7
:100E700010B50448D0F88C0018B10249D1F88C00A4
:100E8000804710BD2480FF1F10B50448D0F89000A3
:100E900018B10249D1F89000804710BD2480FF1F8F
:100EA00010B50448D0F8940018B10249D1F8940064
:100EB000804710BD2480FF1F10B50448D0F898006B
:100EC00018B10249D1F89800804710BD2480FF1F57
:100ED00010B50448D0F89C0018B10249D1F89C0024
:100EE000804710BD2480FF1F10B50448D0F8A00033
:100EF00018B10249D1F8A000804710BD2480FF1F1F
:100F000010B50448D0F8A40018B10249D1F8A400E3
:100F1000804710BD2480FF1F10B50448D0F8A800FA
:100F200018B10249D1F8A800804710BD2480FF1FE6
:100F300010B50448D0F8AC0018B10249D1F8AC00A3
:100F4000804710BD2480FF1F10B50448D0F8B000C2
:100F500018B10249D1F8B000804710BD2480FF1FAE
:100F600010B50448D0F8B40018B10249D1F8B40063
:100F7000804710BD2480FF1F10B50448D0F8B8008A
:100F800018B10249D1F8B800804710BD2480FF1F76
:100F900010B50448D0F8BC0018B10249D1F8BC0023
:100FA000804710BD2480FF1F10B50448D0F8C00052
:100FB00018B10249D1F8C000804710BD2480FF1F3E
:100FC00010B50448D0F8C40018B10249D1F8C400E3
:100FD000804710BD2480FF1F10B50448D0F8C8001A
:100FE00018B10249D1F8C800804710BD2480FF1F06
:100FF00010B50448D0F8CC0018B10249D1F8CC00A3
:10100000804710BD2480FF1F10B50448D0F8D000E1
:1010100018B10249D1F8D000804710BD2480FF1FCD
:1010200010B50448D0F8D40018B10249D1F8D40062
:10103000804710BD2480FF1F10B50448D0F8D800A9
:1010400018B10249D1F8D800804710BD2480FF1F95
:1010500010B50448D0F8DC0018B10249D1F8DC0022
:10106000804710BD2480FF1F10B50448D0F8E00071
:1010700018B10249D1F8E000804710BD2480FF1F5D
:1010800010B50448D0F8E40018B10249D1F8E400E2
:10109000804710BD2480FF1F10B50448D0F8E80039
:1010A00018B10249D1F8E800804710BD2480FF1F25
:1010B00010B50448D0F8EC0018B10249D1F8EC00A2
:1010C000804710BD2480FF1F10B50448D0F8F00001
:1010D00018B10249D1F8F000804710BD2480FF1FED
:1010E00010B50448D0F8F40018B10249D1F8F40062
:1010F000804710BD2480FF1F10B50448D0F8F800C9
:1011000018B10249D1F8F800804710BD2480FF1FB4
:1011100010B50448D0F8FC0018B10249D1F8FC0021
:10112000804710BD2480FF1F10B50448D0F800018F
:1011300018B10249D1F80001804710BD2480FF1F7B
:1011400010B50448D0F8040118B10249D1F80401DF
:10115000804710BD2480FF1F10B50448D0F8080157
:1011600018B10249D1F80801804710BD2480FF1F43
:1011700010B50448D0F80C0118B10249D1F80C019F
:10118000804710BD2480FF1F10B50448D0F810011F
:1011900018B10249D1F81001804710BD2480FF1F0B
:1011A00010B50448D0F8140118B10249D1F814015F
:1011B000804710BD2480FF1F10B50448D0F81801E7
:1011C00018B10249D1F81801804710BD2480FF1FD3
:1011D00010B50448D0F81C0118B10249D1F81C011F
:1011E000804710BD2480FF1F10B50448D0F82001AF
:1011F00018B10249D1F82001804710BD2480FF1F9B
:1012000010B50448D0F8240118B10249D1F82401DE
:10121000804710BD2480FF1F10B50448D0F8280176
:1012200018B10249D1F82801804710BD2480FF1F62
:1012300010B50448D0F82C0118B10249D1F82C019E
:10124000804710BD2480FF1F10B50448D0F830013E
:1012500018B10249D1F83001804710BD2480FF1F2A
:1012600010B50448D0F8340118B10249D1F834015E
:10127000804710BD2480FF1F10B50448D0F8380106
:1012800018B10249D1F83801804710BD2480FF1FF2
:1012900010B50448D0F83C0118B10249D1F83C011E
:1012A000804710BD2480FF1F10B50448D0F84001CE
:1012B00018B10249D1F84001804710BD2480FF1FBA
:1012C00010B50448D0F8440118B10249D1F84401DE
:1012D000804710BD2480FF1F10B50448D0F8480196
:1012E00018B10249D1F84801804710BD2480FF1F82
:1012F00010B50448D0F84C0118B10249D1F84C019E
:10130000804710BD2480FF1F10B50448D0F850015D
:1013100018B10249D1F85001804710BD2480FF1F49
:1013200010B50448D0F8540118B10249D1F854015D
:10133000804710BD2480FF1F10B50448D0F8580125
:1013400018B10249D1F85801804710BD2480FF1F11
:1013500010B50448D0F85C0118B10249D1F85C011D
:10136000804710BD2480FF1F10B50448D0F86001ED
:1013700018B10249D1F86001804710BD2480FF1FD9
:1013800010B50448D0F8640118B10249D1F86401DD
:10139000804710BD2480FF1F10B50448D0F86801B5
:1013A00018B10249D1F86801804710BD2480FF1FA1
:1013B00010B50448D0F86C0118B10249D1F86C019D
:1013C000804710BD2480FF1F10B50448D0F870017D
:1013D00018B10249D1F87001804710BD2480FF1F69
:1013E00010B50448D0F8740118B10249D1F874015D
:1013F000804710BD2480FF1F10B50448D0F8780145
:1014000018B10249D1F87801804710BD2480FF1F30
:1014100010B50448D0F87C0118B10249D1F87C011C
:10142000804710BD2480FF1F10B50448D0F880010C
:1014300018B10249D1F88001804710BD2480FF1FF8
:1014400010B50448D0F8840118B10249D1F88401DC
:10145000804710BD2480FF1F10B50448D0F88801D4
:1014600018B10249D1F88801804710BD2480FF1FC0
:1014700010B50448D0F88C0118B10249D1F88C019C
:10148000804710BD2480FF1F10B50448D0F890019C
:1014900018B10249D1F89001804710BD2480FF1F88
:1014A00010B50448D0F8940118B10249D1F894015C
:1014B000804710BD2480FF1F10B50448D0F8980164
:1014C00018B10249D1F89801804710BD2480FF1F50
:1014D00010B50448D0F89C0118B10249D1F89C011C
:1014E000804710BD2480FF1F10B50448D0F8A0012C
:1014F00018B10249D1F8A001804710BD2480FF1F18
:1015000010B50448D0F8A40118B10249D1F8A401DB
:10151000804710BD2480FF1F10B50448D0F8A801F3
:1015200018B10249D1F8A801804710BD2480FF1FDF
:1015300010B50448D0F8AC0118B10249D1F8AC019B
:10154000804710BD2480FF1F10B50448D0F8B001BB
:1015500018B10249D1F8B001804710BD2480FF1FA7
:1015600010B50448D0F8B40118B10249D1F8B4015B
:10157000804710BD2480FF1F10B50448D0F8B80183
:1015800018B10249D1F8B801804710BD2480FF1F6F
:1015900010B50448D0F8BC0118B10249D1F8BC011B
:1015A000804710BD2480FF1F10B50448D0F8C0014B
:1015B00018B10249D1F8C001804710BD2480FF1F37
:1015C00010B50448D0F8C40118B10249D1F8C401DB
:1015D000804710BD2480FF1F10B50448D0F8C80113
:1015E00018B10249D1F8C801804710BD2480FF1FFF
:1015F00010B50448D0F8CC0118B10249D1F8CC019B
:10160000804710BD2480FF1F10B50448D0F8D001DA
:1016100018B10249D1F8D001804710BD2480FF1FC6
:1016200010B50448D0F8D40118B10249D1F8D4015A
:10163000804710BD2480FF1F10B50448D0F8D801A2
:1016400018B10249D1F8D801804710BD2480FF1F8E
:1016500010B50448D0F8DC0118B10249D1F8DC011A
:10166000804710BD2480FF1F10B50448D0F8E0016A
:1016700018B10249D1F8E001804710BD2480FF1F56
:1016800010B50448D0F8E40118B10249D1F8E401DA
:10169000804710BD2480FF1F10B50448D0F8E80132
:1016A00018B10249D1F8E801804710BD2480FF1F1E
:1016B00010B50448D0F8EC0118B10249D1F8EC019A
:1016C000804710BD2480FF1F10B50448D0F8F001FA
:1016D00018B10249D1F8F001804710BD2480FF1FE6
:1016E00010B50448D0F8F40118B10249D1F8F4015A
:1016F000804710BD2480FF1F10B50448D0F8F801C2
:1017000018B10249D1F8F801804710BD2480FF1FAD
:1017100010B50448D0F8FC0118B10249D1F8FC0119
:10172000804710BD2480FF1F1CB500BF0020009023
:10173000019000BF8DF8000001208DF804006A467A
:10174000C10300F057F81CBD10B54FF40041012053
:1017500000F040F80446012C06D10548007818B97D
:1017600003480470002010BD014804700120FAE70E
:101770002080FF1F1CB500BF00200090019000BF1B
:1017800001208DF800008DF804006A46810300F006
:1017900031F800F001F81CBD10B54FF48041012074
:1017A00000F0A8F810BD10B54FF48041012000F002
:1017B00093F810BD10B5AFF3008010BD10B500F068
:1017C00001F810BD10B502480068804710BD000048
:1017D0001480FF1F10B502460548102404FB0203C5
:1017E0001868084008B1012010BD0020FCE7000087
:1017F00000380540F0B505460F461346002400F0BA
:10180000B3F800BF57E00120A0403840002850D076
:101810002C4800EB851000EB84022A48801C00EB6A
:10182000851000EB84065978108861F38E301080A3
:101830009978108861F30C301080D978108861F3A2
:10184000492010801979108861F3861010809979E9
:10185000108861F3820010805979108861F30510B7
:101860001080187820B101280BD002281AD112E07C
:10187000108820F400401080108820F002001080B2
:1018800011E0108820F400401080108820F0020041
:10189000801C108007E0108820F4004000F5004014
:1018A000108000E000BF00BFD979308861F30820C4
:1018B0003080601CC4B2102CA5D300F005F80020C5
:1018C000F0BD0000003C05404FF425400149088070
:1018D00070470000FC3B054010B502460448102448
:1018E00004FB0203188808431880002010BD000084
:1018F0000A38054010B502460448102404FB0203D0
:10190000188808431880002010BD000008380540E2
:10191000F0B504460D4616461F46002300F024F895
:10192000002319E001209840284098B10D4840213B
:1019300001FB0400042101FB0302108866F305008B
:101940001080012F01D1012000E00020118860F3F8
:1019500008211180581CC3B2102BE3D3FFF7B4FF4A
:101960000020F0BD023C05404AF2015001490880C8
:1019700070470000FC3B0540012905D1054A52682B
:101980008243044B5A6004E0024A52680243014B0E
:101990005A6070470080044010B50F4800884AF232
:1019A000025108430D49A1F8FE03CF200A49091D41
:1019B00008701020084911310870074800884FF658
:1019C000FD71084040F425400449A1F8FE030120C0
:1019D000FFF7ACF8002010BDFE4305400040054075
:1019E00010B5AFF3008010BD7620024908600020DA
:1019F000704700000C08054077200249086000206D
:101A0000704700000C08054030B502460023002551
:101A100014780CB904253CE000F048F8FFF7ECFF1F
:101A2000002310E004F0010050B15078917840EAB2
:101A30000110D90088401849096808431649086010
:101A40006410581CC3B2042BECD3107800F00200D1
:101A500090B1D17810480830006861F319600E49E0
:101A60000831086011790C480830006861F31040B3
:101A700009490831086008E05179074808300068D2
:101A800061F3000004490831086000F007F8FFF72F
:101A9000ABFF284630BD0000000805407620024913
:101AA00008600020704700000408054077200249C4
:101AB00008600020704700000408054010B5AFF32F
:101AC000008010BD2DE9F04F2DED028B83B0044650
:101AD0008A460026B14600BF9FED410AB0EE408A1B
:101AE00000254FF0FF3B042002903E48844208D07E
:101AF0003D48844205D03D48844202D03C4884425F
:101B000067D1204600F036FE0646002E61D0D14651
:101B100000EE109AB8EE400AF1EE000A60EE200ADC
:101B200000EE106AB8EE400A80EE201AB7EE000A06
:101B300031EE400AB0EE408ABCEEC80A10EE105AF0
:101B4000B5EEC08AF1EE10FA43D3FF2D41D8002044
:101B5000029000EE105AB8EE400A38EE400ADFED6F
:101B6000250AB4EEE00AF1EE10FA1EDD6A1C4041CF
:101B70000021A2FB097300FB093002FB01084FF4AE
:101B800080610022A7FB010308FB013107FB021162
:101B900032460023CDE90001FEF742FCB0F1800B94
:101BA000BBF17F0F01D904200290029888B9BBF1E4
:101BB0007F0F01D8012100E00021E06861F35D7032
:101BC000E060A0686BF30600A060A06865F30F20DA
:101BD000A060029803B0BDEC028BBDE8F08F00005E
:101BE0000000000000D0014000D40140001002407D
:101BF00000140240ACC527372DE9F04F2DED028BC4
:101C000089B004468B460026B146B2469FED4F0A86
:101C1000B0EE408A00BF0025681E07904C4B0FCBEA
:101C200003AF0FC7042002904A48844208D04A48B4
:101C3000844205D04948844202D0494884427FD139
:101C4000204600F097FD8146B9F1000F78D05E463E
:101C50006069C0F3425003A931F810A000EE106A89
:101C6000F8EE400A00EE10AAB8EE400A20EE800A14
:101C7000F0EE000A60EE200A00EE109AB8EE401A6C
:101C800081EE200AF7EE000A30EE600AB0EE408ADC
:101C9000BCEEC80A10EE105AB5EEC08AF1EE10FA8A
:101CA0004ED3FF2D4CD80020029000EE105AB8EE13
:101CB000400A38EE400ADFED2B0AB4EEE00AF1EEFE
:101CC00010FA27DD6A1C40410023A2FB061C00FB22
:101CD00006C002FB03021846A1FB0A7302FB0A328C
:101CE00001FB00284FF400710020A7FB012308FB33
:101CF000013107FB0010CDE900204A460023DDE951
:101D00000001FEF78DFB8038079007987F2801D9E6
:101D100004200290029820B907987F2802D8012158
:101D200001E00DE00021E06861F35D70E06007987C
:101D3000A16860F30601A160A06865F30F20A060B0
:101D4000029809B0BDEC028BBDE8F08F00000000E6
:101D5000902B000000D0014000D401400010024050
:101D600000140240ACC527372DE9F04F2DED028B52
:101D700085B004468B460026B146B2469FED510A17
:101D8000B0EE408A00BF0025681E03900420029038
:101D90004D48844208D04D48844205D04C48844286
:101DA00002D04C48844277D1204600F0E3FC8146C3
:101DB000B9F1000F7FD05E46E068C0F3C03A00EE94
:101DC000106AB8EE400AF2EE000A60EE200A00EE59
:101DD00010AAB8EE400AB0EE001A31EE400A60EEEA
:101DE000800A00EE109AB8EE401A81EE200AF7EE53
:101DF000000A30EE600AB0EE408ABCEEC80A10EE6F
:101E0000105AB5EEC08AF1EE10FA54D3FF2D52D815
:101E10000020029000EE105AB8EE400A38EE400A58
:101E2000DFED2D0AB4EEE00AF1EE10FA2DDD00210F
:101E3000DAF1020261EB01004FF0010C15EB0C0C22
:101E400041EB0103A2FB0C1E00FB0CE002FB0302B2
:101E50000020A1FB067302FB063201FB00284FF4B1
:101E600000610022A7FB010308FB013107FB0211FF
:101E70004A460023CDE90001FEF7D2FA80380390EC
:101E800003987F2801D904200290029820B9039872
:101E90007F2802D8012101E00DE00021E06861F314
:101EA0005D70E0600398A16860F30601A160A0681E
:101EB00065F30F20A060029805B0BDEC028BBDE871
:101EC000F08F00000000000000D0014000D401406D
:101ED0000010024000140240ACC5273710B5AFF324
:101EE000008010BD70B500241320012100220023C2
:101EF000304D2D6805F001051DB12F4D2F4E356079
:101F000002E02F4D2D4E35602E4D2D7805F0070443
:101F1000062C4CD2DFE804F003080C11151A274DEB
:101F20002D68294E356042E0284D274E35603EE051
:101F30004FF40045244E356039E0244D224E356083
:101F400035E04FF40045204E356030E01D4DDA3568
:101F50002D68C5F3C0131B4D263DD5F80051C5F3C0
:101F60000820184DDA352D68290F164D263DD5F875
:101F7000005105F01F025BB9551C144EB6FBF5F578
:101F8000461C75434E1CB5FBF6F50F4E35600DE053
:101F9000012B0BD1094D2E68551CB6FBF5F5461CDF
:101FA00075434E1CB5FBF6F5074E356000BF00BF0C
:101FB00070BD0000840601400024F4000080FF1F73
:101FC000002D3101264005400480FF1F00127A00D9
:101FD00000B50448006840F4700002490860FFF74B
:101FE00081FF00BD88ED00E078B5034604208B4DED
:101FF000AB4208D08A4DAB4205D08A4DAB4202D0ED
:10200000894DAB427DD100200F297BD2DFE801F062
:10201000080D12171C2126353A2B30EAF2F7FC0086
:10202000DD6862F38205DD60F5E0DD6862F3451589
:10203000DD60F0E0DD6862F3C305DD60EBE0DD68E4
:1020400062F3C715DD60E6E0DD6862F30005DD6080
:10205000E1E0DD6862F34105DD60DCE0DD6862F34C
:102060000415DD60D7E0DD6862F38A25DD60D2E02B
:10207000DD6862F39E75DD60CDE0DD6862F3861594
:10208000DD60C8E0DD68009E65F300060096DD684F
:102090006E08009D66F341050095DD68AE08009D61
:1020A00066F382050095DD68EE08009D66F3C305C2
:1020B0000095DD682E09009D66F304150095DD6826
:1020C0006E09009D66F345150095DD68AE09009D1B
:1020D00066F386150095DD68EE09009D66F3C71569
:1020E00000959D892E0A009D66F308250095DD6800
:1020F0006E0A009D66F349250095DD68AE0A009DD5
:1021000001E089E085E066F38A2500959D89EE0A65
:10211000009D66F3CB250095DD682E0B009D66F3D0
:102120000C3500959D896E0B009D66F34E3500952C
:10213000DD68EE0B009D66F3CF350095DD682E0C53
:10214000009D66F310450095DD686E0C009D66F3FA
:1021500051450095DD68AE0C009D66F392450095F3
:10216000DD68EE0C009D66F3D3450095DD682E0D0D
:10217000009D66F314550095DD686E0D009D66F3B5
:1021800057550095DD682E0E009D66F31865009585
:10219000DD686E0E009D66F35B650095DD682E0FB1
:1021A000009D66F31C750095DD686E0F009D66F35B
:1021B0005D750095DD68AE0F009D66F39E75009518
:1021C000DD68EE0F009D66F3DF750095009D62F3FC
:1021D000C3050095009D62F3C71500956C46256800
:1021E000DD6018E0DD6862F35D75DD6013E00BE033
:1021F00005E0FFE71D6962F300051D610BE05D6905
:1022000062F345155D6106E05D6962F349255D6134
:1022100001E0042000BF00BF78BD000000D00140F5
:1022200000D4014000100240001402400246106831
:10223000084008B1012070470020FCE701464868CB
:10224000C0F3084070470246506861F308005060D0
:102250000020704770B504460D460426134884429A
:1022600008D01348844205D01248844202D0124854
:10227000844218D16069C0F3401028B12946204635
:10228000FFF7BAFC06460EE0E068C0F3006028B134
:1022900029462046FFF716FC064604E0294620465C
:1022A000FFF762FD0646304670BD000000D00140D9
:1022B00000D4014000100240001402401FB5024645
:1022C000002303930293019300930420A24B9A42AC
:1022D00008D0A24B9A4205D0A14B9A4202D0A14B02
:1022E0009A427DD100297BD09F4BD360002313619C
:1022F00053614FF6FF73936000239361009B23F0BB
:1023000020030093029B23F0807302934C78039B7D
:1023100064F3010303938C78029B64F30C33029300
:10232000CC78029B64F31C7302930C79019B64F3D9
:102330004D3301930C78019B64F3CC2301934B79CB
:1023400023B1012B07D0022B1DD10FE0029B23F4F8
:102350008063029318E0029B23F400730293029BB4
:1023600023F4806303F5806302930DE0029B23F462
:10237000007303F500730293029B23F4806303F55B
:102380008063029300E000BF00BF0C7A009B64F3FF
:1023900049230093CC79029B64F3DF7302938C7919
:1023A000029B64F3CF330293039B946963F30104AC
:1023B0009461039B9361019B146963F300041461AE
:1023C000BDF804301382019BDC0A136964F3CC234B
:1023D0001361019B5C0B136964F34D33136100E0DF
:1023E000B7E0BDF80540A2F811409DF80740D4744D
:1023F0009DF800301375009B5C09536964F3451325
:102400005361BDF800309382009B5C0A536964F30A
:102410004923536102F11403BDF80140A2F81540AD
:10242000009B5C0D536964F3575353619DF803405F
:10243000D475029BD46863F30004D460029B5C08EB
:10244000D36864F34103D360029B9C08D36864F3B0
:102450008203D360029BDC08D36864F3C303D360B8
:10246000029B1C09D36864F30413D360029B5C09CC
:10247000D36864F34513D360029B9C09D36864F36B
:102480008613D360029BDC09D36864F3C713D3605F
:102490009DF809405473029B5C0AD36864F3492396
:1024A000D360029B9C0AD36864F38A23D3609DF8AF
:1024B00009405473029B1C0BD36864F30C33D36044
:1024C0009DF809405473029BDC0BD36864F3CF334F
:1024D000D360029B1C0CD36864F31043D360029B4F
:1024E0005C0CD36864F35143D3609DF80A40947345
:1024F000029BDC0CD36864F3D343D360029B1C0DB6
:10250000D36864F31453D3609DF80A409473029B1C
:102510001C0ED36864F31863D3609DF80B40D4732A
:10252000029B1C0FD36864F31C73D360029B5C0F87
:10253000D36864F35D73D360029B9C0FD36864F32C
:102540009E73D360029BDC0FD36864F3DF73D360A8
:10255000002004B010BD000000D0014000D40140B4
:10256000001002400014024000001B8010B5AFF3C1
:10257000008010BD7047000030B585B004460025CE
:102580000023202211011846FFF7C2F9002321225F
:102590004FF480611846FFF7BBF9304A07CA8DE84F
:1025A000070001210806FFF7E7F969462C48FFF705
:1025B00085FE05460DB100BFFEE721462848FFF71E
:1025C00049FE05460DB100BFFEE726480068B0FB96
:1025D000F4F0254908600120ADF80E00234804906E
:1025E00040F21710ADF80C0003A800F039F9BDF95E
:1025F0000E000F2100F01EF9BDF90E0000F0FAF8F0
:10260000BDF90E0000F004F90420ADF80E001848E2
:1026100004904FF48C70ADF80C0003A800F020F982
:10262000BDF90E000F2100F005F9BDF90E0000F014
:10263000E1F8BDF90E0000F0EBF801220221084894
:10264000FFF7D2FC012200210548FFF7CDFC012253
:1026500011460348FFF7C8FC05B030BDA02B0000B1
:1026600000D001400480FF1F1C80FF1FFF030000FB
:10267000752500007047704730B585B004460025C9
:102680000023242201211846FFF742F900232522C6
:1026900002211846FFF73CF9304A07CA8DE80700C7
:1026A00001214806FFF768F969462D48FFF706FE45
:1026B00005460DB100BFFEE721462948FFF7CAFDD8
:1026C00005460DB100BFFEE726480068B0FBF4F0F8
:1026D000254908600020ADF80E00244804904FF40E
:1026E0008E70ADF80C0003A800F0BAF8BDF90E002A
:1026F0000F2100F09FF8BDF90E0000F07BF8BDF946
:102700000E0000F085F80220ADF80E001848049085
:1027100040F21D10ADF80C0003A800F0A1F8BDF9BF
:102720000E000F2100F086F8BDF90E0000F062F8EF
:10273000BDF90E0000F06CF8012202210848FFF7F5
:1027400053FC012200210648FFF74EFC01221146EE
:102750000348FFF749FC05B030BD0000AC2B00007A
:1027600000D401400480FF1F1C80FF1F752600005D
:102770007726000010B5014600220020084B1B6A96
:10278000C3F302140123A340064C2468B4FBF3F204
:102790008B699B075C0F0123A340B2FBF3F010BDD4
:1027A000004005400480FF1F70B506460C4600251A
:1027B00000BF615D304600F00DF8681CC5B2605D79
:1027C0000028F6D100BF40213046FFF72FFD00283A
:1027D000F9D070BD70B504460D4629462046FFF776
:1027E00032FD00BF80212046FFF720FD0028F9D0F0
:1027F00070BD0000002807DB00F01F02012191409E
:10280000024A430942F823107047000080E200E0CA
:1028100000280DDB00BF00BF00F01F020121914026
:102820004209920002F1E022C2F8001100BF00BF8D
:102830007047000010B5002804DB0A07130E054A94
:10284000135406E00A07140E034A00F00F031B1F7F
:10285000D45410BD00E400E018ED00E000BF704764
:1028600070B5014600240B88DD1703EBD5656D11AB
:1028700005EB4505202606EB4505B1F90260B5429A
:102880000DDC0888C51700EBD5656D1105EB450516
:10289000252606EB4505B1F90260B54205DAB1F926
:1028A0000250202D01DB042418E048880C4B04253D
:1028B00015FB00321068C0F3080040F2FF13984285
:1028C0000BD10B88106863F308001060B1F9023077
:1028D000044D486845F8230000E00724204670BDF9
:1028E0005C1005402480FF1F8EB0744AD2E901318C
:1028F0001068D268CDE90B310D920A906F4B1033FE
:10290000D3E90020D3E90213CDE90813CDE906206D
:102910007E208DF804000E208DF80500D8208DF85B
:102920000600674800783030C0B28DF80700644870
:1029300080780A2190FBF1F03030C0B28DF80800A9
:102940005F48807890FBF1F201FB12003030C0B29A
:102950008DF809005A48C07890FBF1F03030C0B2D1
:102960008DF80A005648C07890FBF1F201FB120086
:102970003030C0B28DF80B005148007990FBF1F077
:102980003030C0B28DF80C004D48007990FBF1F268
:1029900001FB12003030C0B28DF80D00484840797C
:1029A00090FBF1F03030C0B28DF80E004448407911
:1029B00090FBF1F201FB12003030C0B28DF80F0035
:1029C0003F48807990FBF1F03030C0B28DF81000B4
:1029D0003B48807990FBF1F201FB12003030C0B22D
:1029E0008DF8110002208DF812007E208DF8130062
:1029F000FF24FDF7F5FDFEF7BDFEFEF795FE4FF453
:102A00001650FFF7B9FD4FF41650FFF735FE2DA114
:102A10003648FFF7C9FE4FE01420FEF787F8FEF7AF
:102A200093FE002848D13248007800282ED001A912
:102A30003048FFF7B9FE00202D490870FEF7B3FEBD
:102A40002C48FFF7FBFBC4B23CB92948007820B9F9
:102A500029A12648FFF7A8FE2EE0012C07D1244823
:102A6000007820B92DA12148FFF79EFE24E0022C1A
:102A700007D11F48007820B931A11C48FFF794FE08
:102A80001AE034A11948FFF78FFE15E006A919488E
:102A9000FFF78AFE0220164908701648FFF7CEFBA2
:102AA000C4B23CB912480078022803D12BA10F48C8
:102AB000FFF77AFEFEF770FEAEE70000702B000015
:102AC0000A80FF1FB0B4CFC2B0B4BCFCBFAACABC5E
:102AD000C2BCD2F40D0A2E2E2E2E2E2E2E2E2E2ECF
:102AE0002E2E2E2E2E2E0D0A0000000000D40140A6
:102AF0001280FF1F00D0014073746172740D0A2EA2
:102B00002E2E2E2E2E2E2E2E2E2E2E2E2E2E2E2EE5
:102B10002E2E2E2E2E2E2E0D0A00000073746172A2
:102B2000745F66756C6C2E2E2E2E2E2E2E2E2E2E53
:102B30002E2E2E2E2E2E2E2E2E2E2E2E2E0D0A0028
:102B400073746172745F6572726F722E2E2E2E2EE8
:102B50002E0D0A00B4EDCEF30000000073746F7008
:102B60000D0A00004FF04070E1EE100A70470000BF
:102B70007E03C2C57E0000000000000000000000CF
:102B80007E03D9DC7E000000000000000000000091
:102B9000200040005D008000BA00000174010002C6
:102BA000000300000000010100000000000300001D
:102BB0000000010100000000D82B00000080FF1F72
:102BC00024000000BC020000FC2B00002480FF1F3A
:102BD00064080000D80200000024F40000127A000B
:102BE000010004000B150B000100010000000000B3
:0C2BF000000000000000000001000000D8
:040000050000028174
:00000001FF
